S017000061746D656761385F746573745F30312E7372656387
S113000012C021C020C01FC01EC01DC01CC01BC008
S11300101AC019C018C017C016C015C014C013C028
S113002012C011C010C011241FBECFE5D4E0DEBF42
S1130030CDBF20E0A0E6B0E001C01D92A136B2071A
S1130040E1F72ED036C0DCCF10BC83E389B988E158
S11300508AB986E880BD08955F9BFECF8CB1089570
S1130060A89A0895A99A0895AA9A0895A89808950F
S1130070A9980895AA98089580916000823041F06B
S1130080833051F0813059F4EBDFF2DFF3DF089570
S1130090E9DFECDFEFDF0895E7DFE8DFE9DF08956C
S11300A084B3876084BBD0DFD7DF80936000E4DF54
S10900B0FBCFF894FFCF22
S9030000FC
